{
  "contractName": "ERC20",
  "abi": [
    {
      "anonymous": false,
      "inputs": [
        {
          "indexed": true,
          "internalType": "address",
          "name": "owner",
          "type": "address"
        },
        {
          "indexed": true,
          "internalType": "address",
          "name": "spender",
          "type": "address"
        },
        {
          "indexed": false,
          "internalType": "uint256",
          "name": "value",
          "type": "uint256"
        }
      ],
      "name": "Approval",
      "type": "event"
    },
    {
      "anonymous": false,
      "inputs": [
        {
          "indexed": true,
          "internalType": "address",
          "name": "from",
          "type": "address"
        },
        {
          "indexed": true,
          "internalType": "address",
          "name": "to",
          "type": "address"
        },
        {
          "indexed": false,
          "internalType": "uint256",
          "name": "value",
          "type": "uint256"
        }
      ],
      "name": "Transfer",
      "type": "event"
    },
    {
      "constant": true,
      "inputs": [],
      "name": "totalSupply",
      "outputs": [
        {
          "internalType": "uint256",
          "name": "",
          "type": "uint256"
        }
      ],
      "payable": false,
      "stateMutability": "view",
      "type": "function"
    },
    {
      "constant": true,
      "inputs": [
        {
          "internalType": "address",
          "name": "owner",
          "type": "address"
        },
        {
          "internalType": "address",
          "name": "spender",
          "type": "address"
        }
      ],
      "name": "allowance",
      "outputs": [
        {
          "internalType": "uint256",
          "name": "",
          "type": "uint256"
        }
      ],
      "payable": false,
      "stateMutability": "view",
      "type": "function"
    },
    {
      "constant": false,
      "inputs": [
        {
          "internalType": "address",
          "name": "recipient",
          "type": "address"
        },
        {
          "internalType": "uint256",
          "name": "amount",
          "type": "uint256"
        }
      ],
      "name": "transfer",
      "outputs": [
        {
          "internalType": "bool",
          "name": "",
          "type": "bool"
        }
      ],
      "payable": false,
      "stateMutability": "nonpayable",
      "type": "function"
    },
    {
      "constant": false,
      "inputs": [
        {
          "internalType": "address",
          "name": "spender",
          "type": "address"
        },
        {
          "internalType": "uint256",
          "name": "amount",
          "type": "uint256"
        }
      ],
      "name": "approve",
      "outputs": [
        {
          "internalType": "bool",
          "name": "",
          "type": "bool"
        }
      ],
      "payable": false,
      "stateMutability": "nonpayable",
      "type": "function"
    },
    {
      "constant": true,
      "inputs": [
        {
          "internalType": "address",
          "name": "account",
          "type": "address"
        }
      ],
      "name": "balanceOf",
      "outputs": [
        {
          "internalType": "uint256",
          "name": "",
          "type": "uint256"
        }
      ],
      "payable": false,
      "stateMutability": "view",
      "type": "function"
    },
    {
      "constant": false,
      "inputs": [
        {
          "internalType": "address",
          "name": "sender",
          "type": "address"
        },
        {
          "internalType": "address",
          "name": "recipient",
          "type": "address"
        },
        {
          "internalType": "uint256",
          "name": "amount",
          "type": "uint256"
        }
      ],
      "name": "transferFrom",
      "outputs": [
        {
          "internalType": "bool",
          "name": "",
          "type": "bool"
        }
      ],
      "payable": false,
      "stateMutability": "nonpayable",
      "type": "function"
    },
    {
      "constant": false,
      "inputs": [
        {
          "internalType": "address",
          "name": "account",
          "type": "address"
        },
        {
          "internalType": "uint256",
          "name": "value",
          "type": "uint256"
        }
      ],
      "name": "burnFrom",
      "outputs": [],
      "payable": false,
      "stateMutability": "nonpayable",
      "type": "function"
    }
  ],
  "bytecode": "0x608060405234801561001057600080fd5b50610d4d806100206000396000f3fe608060405234801561001057600080fd5b506004361061007d5760003560e01c806370a082311161005b57806370a082311461018c57806379cc6790146101e4578063a9059cbb14610232578063dd62ed3e146102985761007d565b8063095ea7b31461008257806318160ddd146100e857806323b872dd14610106575b600080fd5b6100ce6004803603604081101561009857600080fd5b81019080803573ffffffffffffffffffffffffffffffffffffffff16906020019092919080359060200190929190505050610310565b604051808215151515815260200191505060405180910390f35b6100f0610323565b6040518082815260200191505060405180910390f35b6101726004803603606081101561011c57600080fd5b81019080803573ffffffffffffffffffffffffffffffffffffffff169060200190929190803573ffffffffffffffffffffffffffffffffffffffff1690602001909291908035906020019092919050505061032d565b604051808215151515815260200191505060405180910390f35b6101ce600480360360208110156101a257600080fd5b81019080803573ffffffffffffffffffffffffffffffffffffffff16906020019092919050505061044a565b6040518082815260200191505060405180910390f35b610230600480360360408110156101fa57600080fd5b81019080803573ffffffffffffffffffffffffffffffffffffffff16906020019092919080359060200190929190505050610492565b005b61027e6004803603604081101561024857600080fd5b81019080803573ffffffffffffffffffffffffffffffffffffffff16906020019092919080359060200190929190505050610529565b604051808215151515815260200191505060405180910390f35b6102fa600480360360408110156102ae57600080fd5b81019080803573ffffffffffffffffffffffffffffffffffffffff169060200190929190803573ffffffffffffffffffffffffffffffffffffffff169060200190929190505050610540565b6040518082815260200191505060405180910390f35b600061031d3384846105c7565b92915050565b6000600254905090565b600061033a8484846107f8565b6000600160008673ffffffffffffffffffffffffffffffffffffffff1673ffffffffffffffffffffffffffffffffffffffff16815260200190815260200160002060003373ffffffffffffffffffffffffffffffffffffffff1673ffffffffffffffffffffffffffffffffffffffff16815260200190815260200160002054905082811015610431576040517f08c379a000000000000000000000000000000000000000000000000000000000815260040180806020018281038252601a8152602001807f5472616e73666572206578636565647320616c6c6f77616e636500000000000081525060200191505060405180910390fd5b61043e85338584036105c7565b60019150509392505050565b60008060008373ffffffffffffffffffffffffffffffffffffffff1673ffffffffffffffffffffffffffffffffffffffff168152602001908152602001600020549050919050565b61049c8282610af3565b610525823383600160008773ffffffffffffffffffffffffffffffffffffffff1673ffffffffffffffffffffffffffffffffffffffff16815260200190815260200160002060003373ffffffffffffffffffffffffffffffffffffffff1673ffffffffffffffffffffffffffffffffffffffff16815260200190815260200160002054036105c7565b5050565b60006105363384846107f8565b6001905092915050565b6000600160008473ffffffffffffffffffffffffffffffffffffffff1673ffffffffffffffffffffffffffffffffffffffff16815260200190815260200160002060008373ffffffffffffffffffffffffffffffffffffffff1673ffffffffffffffffffffffffffffffffffffffff16815260200190815260200160002054905092915050565b600073ffffffffffffffffffffffffffffffffffffffff168373ffffffffffffffffffffffffffffffffffffffff16141561066a576040517f08c379a000000000000000000000000000000000000000000000000000000000815260040180806020018281038252601c8152602001807f43616e277420617070726f76652066726f6d203020616464726573730000000081525060200191505060405180910390fd5b600073ffffffffffffffffffffffffffffffffffffffff168273ffffffffffffffffffffffffffffffffffffffff16141561070d576040517f08c379a000000000000000000000000000000000000000000000000000000000815260040180806020018281038252601a8152602001807f43616e277420617070726f766520746f2030206164647265737300000000000081525060200191505060405180910390fd5b80600160008573ffffffffffffffffffffffffffffffffffffffff1673ffffffffffffffffffffffffffffffffffffffff16815260200190815260200160002060008473ffffffffffffffffffffffffffffffffffffffff1673ffffffffffffffffffffffffffffffffffffffff168152602001908152602001600020819055508173ffffffffffffffffffffffffffffffffffffffff168373ffffffffffffffffffffffffffffffffffffffff167f8c5be1e5ebec7d5bd14f71427d1e84f3dd0314c0f7b2291e5b200ac8c7c3b925836040518082815260200191505060405180910390a3505050565b600073ffffffffffffffffffffffffffffffffffffffff168373ffffffffffffffffffffffffffffffffffffffff16141561089b576040517f08c379a000000000000000000000000000000000000000000000000000000000815260040180806020018281038252601d8152602001807f43616e2774207472616e736665722066726f6d2030206164647265737300000081525060200191505060405180910390fd5b600073ffffffffffffffffffffffffffffffffffffffff168273ffffffffffffffffffffffffffffffffffffffff16141561093e576040517f08c379a000000000000000000000000000000000000000000000000000000000815260040180806020018281038252601a8152602001807f43616e27742074616e7366657220746f2030206164647265737300000000000081525060200191505060405180910390fd5b60008060008573ffffffffffffffffffffffffffffffffffffffff1673ffffffffffffffffffffffffffffffffffffffff168152602001908152602001600020549050818110156109f7576040517f08c379a00000000000000000000000000000000000000000000000000000000081526004018080602001828103825260138152602001807f4e6f7420656e6f7567682062616c616e6365210000000000000000000000000081525060200191505060405180910390fd5b8181036000808673ffffffffffffffffffffffffffffffffffffffff1673ffffffffffffffffffffffffffffffffffffffff16815260200190815260200160002081905550816000808573ffffffffffffffffffffffffffffffffffffffff1673ffffffffffffffffffffffffffffffffffffffff168152602001908152602001600020600082825401925050819055508273ffffffffffffffffffffffffffffffffffffffff168473ffffffffffffffffffffffffffffffffffffffff167fddf252ad1be2c89b69c2b068fc378daa952ba7f163c4a11628f55a4df523b3ef846040518082815260200191505060405180910390a350505050565b600073ffffffffffffffffffffffffffffffffffffffff168273ffffffffffffffffffffffffffffffffffffffff161415610b79576040517f08c379a0000000000000000000000000000000000000000000000000000000008152600401808060200182810382526021815260200180610cf86021913960400191505060405180910390fd5b60008060008473ffffffffffffffffffffffffffffffffffffffff1673ffffffffffffffffffffffffffffffffffffffff16815260200190815260200160002054905081811015610c15576040517f08c379a0000000000000000000000000000000000000000000000000000000008152600401808060200182810382526022815260200180610cd66022913960400191505060405180910390fd5b8181036000808573ffffffffffffffffffffffffffffffffffffffff1673ffffffffffffffffffffffffffffffffffffffff1681526020019081526020016000208190555081600260008282540392505081905550600073ffffffffffffffffffffffffffffffffffffffff168373ffffffffffffffffffffffffffffffffffffffff167fddf252ad1be2c89b69c2b068fc378daa952ba7f163c4a11628f55a4df523b3ef846040518082815260200191505060405180910390a350505056fe45524332303a206275726e20616d6f756e7420657863656564732062616c616e636545524332303a206275726e2066726f6d20746865207a65726f2061646472657373a265627a7a723158200b42bbee5e662e2071a69eb427a71e8ba82ec9617f9483b42dcc6f8cd1ccbccf64736f6c63430005100032",
  "source": "pragma solidity ^0.5.16;\nimport \"./ERC20I.sol\";\n\ncontract ERC20 is ERC20I {\n\t\t// Using a hash table to store all balances as\n\t\t// also because using hash table is cheaper interms of gas than expensive array operations.\n\t\tmapping (address => uint256) private _balances;\n\t\t\n\t\t// Mapping the allowances.\n\t\tmapping (address => mapping (address => uint256)) private _allowances;\n\n\t\tuint256 private _totalSupply;\n\n\t\tfunction totalSupply() public view returns (uint256){\n\t\t\t\treturn _totalSupply;\n\t\t}\n\n\t\t// Now we implement the ERC20 Standard mandatory functions.\n\t\tfunction allowance(address owner, address spender) public view returns (uint256) {\n\t\t\t\treturn _allowances[owner][spender];\n\t\t}\n\n\t\tfunction transfer(address recipient, uint256 amount) public returns (bool) {\n\t\t\t\t_transfer(msg.sender, recipient, amount);\n\t\t\t\treturn true;\n\t\t}\n\n\t\tfunction approve(address spender, uint256 amount) public returns (bool) {\n\t\t\t\t_approve(msg.sender, spender, amount);\n\t\t}\n\n\t\tfunction balanceOf(address account) public view returns (uint256) {\n\t\t    return _balances[account];\n\t\t}\n\n\t\tfunction transferFrom(address sender, address recipient, uint256 amount) public returns (bool) {\n\t\t\t\t_transfer(sender, recipient, amount);\n\t\t\t\tuint256 currentAllowance = _allowances[sender][msg.sender];\n\t\t\t\trequire(currentAllowance >= amount, \"Transfer exceeds allowance\");\n\t\t\t\t_approve(sender, msg.sender, currentAllowance - amount);\n\t\t\t\treturn true;\n\t\t}\n\n\t\tfunction _transfer(address sender, address reciever, uint256 amount) internal {\n\t\t\t\trequire(sender != address(0), \"Can't transfer from 0 address\");\n\t\t\t\trequire(reciever != address(0), \"Can't tansfer to 0 address\");\n\t\t\t\tuint256 senderBalance = _balances[sender];\n\t\t\t\trequire(senderBalance >= amount, \"Not enough balance!\");\n\t\t\t\t_balances[sender] = senderBalance - amount;\n\t\t\t\t_balances[reciever] += amount;\n\t\t\t \n\t\t\t\temit Transfer(sender, reciever, amount);\n\t\t}\n\n\t\t// Creates \"amount\" of tokens and adds them to \"account\" thus increasing\n\t\t// the total supply.\n\t\tfunction _mint(address account, uint256 amount) internal {\n\t\t\t\trequire(account != address(0), \"Can't mint to 0 address\");\n\t\t\t\t_totalSupply += amount;\n\t\t\t\t_balances[account] += amount;\n\t\t\t\temit Transfer(address(0), account, amount);\n\t\t}\n\n\t\tfunction _burn(address account, uint256 amount) internal {\n\t\t\trequire(account != address(0), \"ERC20: burn from the zero address\");\n\n\t\t\tuint256 accountBalance = _balances[account];\n\t\t\trequire(accountBalance >= amount, \"ERC20: burn amount exceeds balance\");\n\t\t\t_balances[account] = accountBalance - amount;\n\t\t\t_totalSupply -= amount;\n\n\t\t\temit Transfer(account, address(0), amount);\n\t\t}\n\n\t\tfunction _approve(address owner, address spender, uint256 amount) internal {\n\t\t\t\trequire(owner != address(0), \"Can't approve from 0 address\");\n\t\t\t\trequire(spender != address(0), \"Can't approve to 0 address\");\n\t\t\t\t_allowances[owner][spender] = amount;\n\t\t\t\temit Approval(owner, spender, amount);\n\t\t}\n\n\t\tfunction burnFrom(address account, uint256 value) public {\n\t\t\t_burn(account, value);\n\t\t\t_approve(account, msg.sender, _allowances[account][msg.sender] - value);\n\t\t}\n}\n",
  "sourcePath": "/Users/sanadkadu/github/Hayek-Token/contracts/ERC20.sol",
  "compiler": {
    "name": "solc",
    "version": "0.5.16+commit.9c3226ce.Emscripten.clang"
  },
  "schemaVersion": "3.3.4",
  "updatedAt": "2021-03-20T13:26:19.823Z",
  "devdoc": {
    "methods": {}
  },
  "userdoc": {
    "methods": {}
  }
}